{
  "_format": "hh-sol-artifact-1",
  "contractName": "Faucet",
  "sourceName": "contracts/Faucet.sol",
  "abi": [
    {
      "inputs": [
        {
          "internalType": "address",
          "name": "_daiAddress",
          "type": "address"
        },
        {
          "internalType": "address",
          "name": "_usdcAddress",
          "type": "address"
        },
        {
          "internalType": "address",
          "name": "_linkAddress",
          "type": "address"
        }
      ],
      "stateMutability": "nonpayable",
      "type": "constructor"
    },
    {
      "anonymous": false,
      "inputs": [
        {
          "indexed": false,
          "internalType": "address",
          "name": "to",
          "type": "address"
        },
        {
          "indexed": false,
          "internalType": "uint256",
          "name": "amount",
          "type": "uint256"
        }
      ],
      "name": "Transfer",
      "type": "event"
    },
    {
      "inputs": [],
      "name": "daiToken",
      "outputs": [
        {
          "internalType": "contract IERC20",
          "name": "",
          "type": "address"
        }
      ],
      "stateMutability": "view",
      "type": "function"
    },
    {
      "inputs": [],
      "name": "faucetOwner",
      "outputs": [
        {
          "internalType": "address",
          "name": "",
          "type": "address"
        }
      ],
      "stateMutability": "view",
      "type": "function"
    },
    {
      "inputs": [],
      "name": "getDAIBalance",
      "outputs": [
        {
          "internalType": "uint256",
          "name": "",
          "type": "uint256"
        }
      ],
      "stateMutability": "view",
      "type": "function"
    },
    {
      "inputs": [],
      "name": "getDAITotalSupply",
      "outputs": [
        {
          "internalType": "uint256",
          "name": "",
          "type": "uint256"
        }
      ],
      "stateMutability": "view",
      "type": "function"
    },
    {
      "inputs": [],
      "name": "getLINKBalance",
      "outputs": [
        {
          "internalType": "uint256",
          "name": "",
          "type": "uint256"
        }
      ],
      "stateMutability": "view",
      "type": "function"
    },
    {
      "inputs": [],
      "name": "getLINKTotalSupply",
      "outputs": [
        {
          "internalType": "uint256",
          "name": "",
          "type": "uint256"
        }
      ],
      "stateMutability": "view",
      "type": "function"
    },
    {
      "inputs": [],
      "name": "getUSDCBalance",
      "outputs": [
        {
          "internalType": "uint256",
          "name": "",
          "type": "uint256"
        }
      ],
      "stateMutability": "view",
      "type": "function"
    },
    {
      "inputs": [],
      "name": "getUSDCTotalSupply",
      "outputs": [
        {
          "internalType": "uint256",
          "name": "",
          "type": "uint256"
        }
      ],
      "stateMutability": "view",
      "type": "function"
    },
    {
      "inputs": [],
      "name": "linkToken",
      "outputs": [
        {
          "internalType": "contract IERC20",
          "name": "",
          "type": "address"
        }
      ],
      "stateMutability": "view",
      "type": "function"
    },
    {
      "inputs": [
        {
          "internalType": "string",
          "name": "_ipAddress",
          "type": "string"
        }
      ],
      "name": "transferETH",
      "outputs": [],
      "stateMutability": "payable",
      "type": "function"
    },
    {
      "inputs": [
        {
          "internalType": "address",
          "name": "_token",
          "type": "address"
        },
        {
          "internalType": "string",
          "name": "_ipAddress",
          "type": "string"
        }
      ],
      "name": "transferToken",
      "outputs": [],
      "stateMutability": "nonpayable",
      "type": "function"
    },
    {
      "inputs": [],
      "name": "usdcToken",
      "outputs": [
        {
          "internalType": "contract IERC20",
          "name": "",
          "type": "address"
        }
      ],
      "stateMutability": "view",
      "type": "function"
    },
    {
      "inputs": [
        {
          "internalType": "address",
          "name": "_addr",
          "type": "address"
        }
      ],
      "name": "withdraw",
      "outputs": [],
      "stateMutability": "payable",
      "type": "function"
    },
    {
      "stateMutability": "payable",
      "type": "receive"
    }
  ],
  "bytecode": "0x60806040526706f05b59d3b20000600255600a60035534801561002157600080fd5b50604051610ec6380380610ec6833981016040819052610040916100b0565b60016000819055600480546001600160a01b03199081166001600160a01b039687161790915560058054821694861694909417909355600680548416929094169190911790925581543391161790556100f3565b80516001600160a01b03811681146100ab57600080fd5b919050565b6000806000606084860312156100c557600080fd5b6100ce84610094565b92506100dc60208501610094565b91506100ea60408501610094565b90509250925092565b610dc4806101026000396000f3fe6080604052600436106100c65760003560e01c8063a0fa4adf1161007f578063ab55d1cc11610059578063ab55d1cc146101cf578063ac428e7a146101e4578063ae581f501461010f578063be22f546146101f957600080fd5b8063a0fa4adf1461019c578063a2f587881461010f578063a539e0bc146101bc57600080fd5b806311eac855146100d25780632d83487d1461010f5780633cfd1ccc1461013257806351cff8d91461014757806357970e931461015c57806380f19e5e1461017c57600080fd5b366100cd57005b600080fd5b3480156100de57600080fd5b506005546100f2906001600160a01b031681565b6040516001600160a01b0390911681526020015b60405180910390f35b34801561011b57600080fd5b50610124610219565b604051908152602001610106565b34801561013e57600080fd5b50610124610297565b61015a610155366004610b3a565b6102e1565b005b34801561016857600080fd5b506006546100f2906001600160a01b031681565b34801561018857600080fd5b506001546100f2906001600160a01b031681565b3480156101a857600080fd5b5061015a6101b7366004610bff565b6103cc565b61015a6101ca366004610c4d565b6105ef565b3480156101db57600080fd5b506101246107fe565b3480156101f057600080fd5b50610124610834565b34801561020557600080fd5b506004546100f2906001600160a01b031681565b6000600460009054906101000a90046001600160a01b03166001600160a01b03166318160ddd6040518163ffffffff1660e01b8152600401602060405180830381865afa15801561026e573d6000803e3d6000fd5b505050506040513d601f19601f820116820180604052508101906102929190610c82565b905090565b6005546040516370a0823160e01b81523360048201526000916001600160a01b0316906370a08231906024015b602060405180830381865afa15801561026e573d6000803e3d6000fd5b6001546001600160a01b0316331461032c5760405162461bcd60e51b81526020600482015260096024820152682737ba1027bbb732b960b91b60448201526064015b60405180910390fd5b6000816001600160a01b03164760405160006040518083038185875af1925050503d8060008114610379576040519150601f19603f3d011682016040523d82523d6000602084013e61037e565b606091505b50509050806103c85760405162461bcd60e51b815260206004820152601660248201527508cc2d2d8cac840e8de40eed2e8d0c8e4c2ee408aa8960531b6044820152606401610323565b5050565b3361040b5760405162461bcd60e51b815260206004820152600f60248201526e496e76616c6964206164647265737360881b6044820152606401610323565b6004546001600160a01b038381169116148061043457506005546001600160a01b038381169116145b8061044c57506006546001600160a01b038381169116145b61048f5760405162461bcd60e51b8152602060048201526014602482015273151bdad95b88139bdd081c9958dbd9db9a5e995960621b6044820152606401610323565b62015180600a826040516104a39190610cbf565b90815260408051602092819003830190206001600160a01b038616600090815292529020546104d29042610cdb565b10156104f05760405162461bcd60e51b815260040161032390610d02565b3360009081526009602090815260408083206001600160a01b038616845290915290205462015180906105239042610cdb565b10156105415760405162461bcd60e51b815260040161032390610d02565b61054e8233600354610865565b3360009081526009602090815260408083206001600160a01b03861684529091529081902042908190559051600a90610588908490610cbf565b90815260408051602092819003830181206001600160a01b038716600090815290845282902093909355600354338452918301919091527f69ca02dd4edd7bf0a4abb9ed3b7af3f14778db5d61921c7dc7cd545266326de291015b60405180910390a15050565b3361062e5760405162461bcd60e51b815260206004820152600f60248201526e496e76616c6964206164647265737360881b6044820152606401610323565b620151806008826040516106429190610cbf565b9081526020016040518091039020544261065c9190610cdb565b10156106bf5760405162461bcd60e51b815260206004820152602c60248201527f52657175657374204e6f7420416c6c6f7765642046726f6d205468697320495060448201526b081059191c995cdcc816595d60a21b6064820152608401610323565b3360009081526007602052604090205462015180906106de9042610cdb565b10156106fc5760405162461bcd60e51b815260040161032390610d02565b60025460405160009133918381818185875af1925050503d806000811461073f576040519150601f19603f3d011682016040523d82523d6000602084013e610744565b606091505b505090508061078e5760405162461bcd60e51b815260206004820152601660248201527508cc2d2d8cac840e8de40e8e4c2dce6cccae4408aa8960531b6044820152606401610323565b3360009081526007602052604090819020429081905590516008906107b4908590610cbf565b908152604080516020928190038301812093909355600254338452918301919091527f69ca02dd4edd7bf0a4abb9ed3b7af3f14778db5d61921c7dc7cd545266326de291016105e3565b600480546040516370a0823160e01b815233928101929092526000916001600160a01b03909116906370a08231906024016102c4565b6006546040516370a0823160e01b81523360048201526000916001600160a01b0316906370a08231906024016102c4565b604080516001600160a01b038416602482015260448082018490528251808303909101815260649091019091526020810180516001600160e01b031663a9059cbb60e01b1790526108b79084906108bc565b505050565b6000610911826040518060400160405280602081526020017f5361666545524332303a206c6f772d6c6576656c2063616c6c206661696c6564815250856001600160a01b031661098e9092919063ffffffff16565b8051909150156108b7578080602001905181019061092f9190610d39565b6108b75760405162461bcd60e51b815260206004820152602a60248201527f5361666545524332303a204552433230206f7065726174696f6e20646964206e6044820152691bdd081cdd58d8d9595960b21b6064820152608401610323565b606061099d84846000856109a5565b949350505050565b606082471015610a065760405162461bcd60e51b815260206004820152602660248201527f416464726573733a20696e73756666696369656e742062616c616e636520666f6044820152651c8818d85b1b60d21b6064820152608401610323565b600080866001600160a01b03168587604051610a229190610cbf565b60006040518083038185875af1925050503d8060008114610a5f576040519150601f19603f3d011682016040523d82523d6000602084013e610a64565b606091505b5091509150610a7587838387610a80565b979650505050505050565b60608315610aef578251600003610ae8576001600160a01b0385163b610ae85760405162461bcd60e51b815260206004820152601d60248201527f416464726573733a2063616c6c20746f206e6f6e2d636f6e74726163740000006044820152606401610323565b508161099d565b61099d8383815115610b045781518083602001fd5b8060405162461bcd60e51b81526004016103239190610d5b565b80356001600160a01b0381168114610b3557600080fd5b919050565b600060208284031215610b4c57600080fd5b610b5582610b1e565b9392505050565b634e487b7160e01b600052604160045260246000fd5b600082601f830112610b8357600080fd5b813567ffffffffffffffff80821115610b9e57610b9e610b5c565b604051601f8301601f19908116603f01168101908282118183101715610bc657610bc6610b5c565b81604052838152866020858801011115610bdf57600080fd5b836020870160208301376000602085830101528094505050505092915050565b60008060408385031215610c1257600080fd5b610c1b83610b1e565b9150602083013567ffffffffffffffff811115610c3757600080fd5b610c4385828601610b72565b9150509250929050565b600060208284031215610c5f57600080fd5b813567ffffffffffffffff811115610c7657600080fd5b61099d84828501610b72565b600060208284031215610c9457600080fd5b5051919050565b60005b83811015610cb6578181015183820152602001610c9e565b50506000910152565b60008251610cd1818460208701610c9b565b9190910192915050565b81810381811115610cfc57634e487b7160e01b600052601160045260246000fd5b92915050565b60208082526017908201527f52657175657374204e6f7420416c6c6f77656420596574000000000000000000604082015260600190565b600060208284031215610d4b57600080fd5b81518015158114610b5557600080fd5b6020815260008251806020840152610d7a816040850160208701610c9b565b601f01601f1916919091016040019291505056fea2646970667358221220f3016e0e49534df7a004365530d21bbd57ff6b8418a6ffa6ff61d33d76c8dde964736f6c63430008110033",
  "linkReferences": {},
  "deployedLinkReferences": {}
}