{
  "_format": "hh-sol-artifact-1",
  "contractName": "Faucet",
  "sourceName": "contracts/Faucet.sol",
  "abi": [
    {
      "inputs": [
        {
          "internalType": "address",
          "name": "_daiAddress",
          "type": "address"
        },
        {
          "internalType": "address",
          "name": "_usdcAddress",
          "type": "address"
        },
        {
          "internalType": "address",
          "name": "_linkAddress",
          "type": "address"
        }
      ],
      "stateMutability": "nonpayable",
      "type": "constructor"
    },
    {
      "anonymous": false,
      "inputs": [
        {
          "indexed": false,
          "internalType": "address",
          "name": "to",
          "type": "address"
        },
        {
          "indexed": false,
          "internalType": "uint256",
          "name": "amount",
          "type": "uint256"
        }
      ],
      "name": "Transfer",
      "type": "event"
    },
    {
      "inputs": [],
      "name": "daiToken",
      "outputs": [
        {
          "internalType": "contract IERC20",
          "name": "",
          "type": "address"
        }
      ],
      "stateMutability": "view",
      "type": "function"
    },
    {
      "inputs": [],
      "name": "faucetOwner",
      "outputs": [
        {
          "internalType": "address",
          "name": "",
          "type": "address"
        }
      ],
      "stateMutability": "view",
      "type": "function"
    },
    {
      "inputs": [],
      "name": "getDAIBalance",
      "outputs": [
        {
          "internalType": "uint256",
          "name": "",
          "type": "uint256"
        }
      ],
      "stateMutability": "view",
      "type": "function"
    },
    {
      "inputs": [],
      "name": "getDAITotalSupply",
      "outputs": [
        {
          "internalType": "uint256",
          "name": "",
          "type": "uint256"
        }
      ],
      "stateMutability": "view",
      "type": "function"
    },
    {
      "inputs": [],
      "name": "getLINKBalance",
      "outputs": [
        {
          "internalType": "uint256",
          "name": "",
          "type": "uint256"
        }
      ],
      "stateMutability": "view",
      "type": "function"
    },
    {
      "inputs": [],
      "name": "getLINKTotalSupply",
      "outputs": [
        {
          "internalType": "uint256",
          "name": "",
          "type": "uint256"
        }
      ],
      "stateMutability": "view",
      "type": "function"
    },
    {
      "inputs": [],
      "name": "getUSDCBalance",
      "outputs": [
        {
          "internalType": "uint256",
          "name": "",
          "type": "uint256"
        }
      ],
      "stateMutability": "view",
      "type": "function"
    },
    {
      "inputs": [],
      "name": "getUSDCTotalSupply",
      "outputs": [
        {
          "internalType": "uint256",
          "name": "",
          "type": "uint256"
        }
      ],
      "stateMutability": "view",
      "type": "function"
    },
    {
      "inputs": [],
      "name": "linkToken",
      "outputs": [
        {
          "internalType": "contract IERC20",
          "name": "",
          "type": "address"
        }
      ],
      "stateMutability": "view",
      "type": "function"
    },
    {
      "inputs": [
        {
          "internalType": "string",
          "name": "_ipAddress",
          "type": "string"
        }
      ],
      "name": "transferETH",
      "outputs": [],
      "stateMutability": "payable",
      "type": "function"
    },
    {
      "inputs": [
        {
          "internalType": "address",
          "name": "_token",
          "type": "address"
        },
        {
          "internalType": "string",
          "name": "_ipAddress",
          "type": "string"
        }
      ],
      "name": "transferToken",
      "outputs": [],
      "stateMutability": "nonpayable",
      "type": "function"
    },
    {
      "inputs": [],
      "name": "usdcToken",
      "outputs": [
        {
          "internalType": "contract IERC20",
          "name": "",
          "type": "address"
        }
      ],
      "stateMutability": "view",
      "type": "function"
    },
    {
      "inputs": [
        {
          "internalType": "address",
          "name": "_addr",
          "type": "address"
        }
      ],
      "name": "withdraw",
      "outputs": [],
      "stateMutability": "payable",
      "type": "function"
    },
    {
      "stateMutability": "payable",
      "type": "receive"
    }
  ],
  "bytecode": "0x60806040526706f05b59d3b20000600255600a60035534801561002157600080fd5b50604051610f24380380610f24833981016040819052610040916100b0565b60016000819055600480546001600160a01b03199081166001600160a01b039687161790915560058054821694861694909417909355600680548416929094169190911790925581543391161790556100f3565b80516001600160a01b03811681146100ab57600080fd5b919050565b6000806000606084860312156100c557600080fd5b6100ce84610094565b92506100dc60208501610094565b91506100ea60408501610094565b90509250925092565b610e22806101026000396000f3fe6080604052600436106100c65760003560e01c8063a0fa4adf1161007f578063ab55d1cc11610059578063ab55d1cc146101cf578063ac428e7a146101e4578063ae581f501461010f578063be22f546146101f957600080fd5b8063a0fa4adf1461019c578063a2f587881461010f578063a539e0bc146101bc57600080fd5b806311eac855146100d25780632d83487d1461010f5780633cfd1ccc1461013257806351cff8d91461014757806357970e931461015c57806380f19e5e1461017c57600080fd5b366100cd57005b600080fd5b3480156100de57600080fd5b506005546100f2906001600160a01b031681565b6040516001600160a01b0390911681526020015b60405180910390f35b34801561011b57600080fd5b50610124610219565b604051908152602001610106565b34801561013e57600080fd5b50610124610297565b61015a610155366004610b98565b6102e1565b005b34801561016857600080fd5b506006546100f2906001600160a01b031681565b34801561018857600080fd5b506001546100f2906001600160a01b031681565b3480156101a857600080fd5b5061015a6101b7366004610c5d565b6103d2565b61015a6101ca366004610cab565b6105f5565b3480156101db57600080fd5b5061012461085c565b3480156101f057600080fd5b50610124610892565b34801561020557600080fd5b506004546100f2906001600160a01b031681565b6000600460009054906101000a90046001600160a01b03166001600160a01b03166318160ddd6040518163ffffffff1660e01b8152600401602060405180830381865afa15801561026e573d6000803e3d6000fd5b505050506040513d601f19601f820116820180604052508101906102929190610ce0565b905090565b6005546040516370a0823160e01b81523360048201526000916001600160a01b0316906370a08231906024015b602060405180830381865afa15801561026e573d6000803e3d6000fd5b6001546001600160a01b0316331461032c5760405162461bcd60e51b81526020600482015260096024820152682737ba1027bbb732b960b91b60448201526064015b60405180910390fd5b6000816001600160a01b03164762030d4090604051600060405180830381858888f193505050503d806000811461037f576040519150601f19603f3d011682016040523d82523d6000602084013e610384565b606091505b50509050806103ce5760405162461bcd60e51b815260206004820152601660248201527508cc2d2d8cac840e8de40eed2e8d0c8e4c2ee408aa8960531b6044820152606401610323565b5050565b336104115760405162461bcd60e51b815260206004820152600f60248201526e496e76616c6964206164647265737360881b6044820152606401610323565b6004546001600160a01b038381169116148061043a57506005546001600160a01b038381169116145b8061045257506006546001600160a01b038381169116145b6104955760405162461bcd60e51b8152602060048201526014602482015273151bdad95b88139bdd081c9958dbd9db9a5e995960621b6044820152606401610323565b62015180600a826040516104a99190610d1d565b90815260408051602092819003830190206001600160a01b038616600090815292529020546104d89042610d39565b10156104f65760405162461bcd60e51b815260040161032390610d60565b3360009081526009602090815260408083206001600160a01b038616845290915290205462015180906105299042610d39565b10156105475760405162461bcd60e51b815260040161032390610d60565b61055482336003546108c3565b3360009081526009602090815260408083206001600160a01b03861684529091529081902042908190559051600a9061058e908490610d1d565b90815260408051602092819003830181206001600160a01b038716600090815290845282902093909355600354338452918301919091527f69ca02dd4edd7bf0a4abb9ed3b7af3f14778db5d61921c7dc7cd545266326de291015b60405180910390a15050565b336106345760405162461bcd60e51b815260206004820152600f60248201526e496e76616c6964206164647265737360881b6044820152606401610323565b620151806008826040516106489190610d1d565b908152602001604051809103902054426106629190610d39565b10156106c55760405162461bcd60e51b815260206004820152602c60248201527f52657175657374204e6f7420416c6c6f7765642046726f6d205468697320495060448201526b081059191c995cdcc816595d60a21b6064820152608401610323565b3360009081526007602052604090205462015180906106e49042610d39565b10156107025760405162461bcd60e51b815260040161032390610d60565b60025447116107535760405162461bcd60e51b815260206004820152601a60248201527f4e6f7420456e6f7567682042616c616e636520746f2053656e640000000000006044820152606401610323565b6002546040516000913391621e8480919084818181858888f193505050503d806000811461079d576040519150601f19603f3d011682016040523d82523d6000602084013e6107a2565b606091505b50509050806107ec5760405162461bcd60e51b815260206004820152601660248201527508cc2d2d8cac840e8de40e8e4c2dce6cccae4408aa8960531b6044820152606401610323565b336000908152600760205260409081902042908190559051600890610812908590610d1d565b908152604080516020928190038301812093909355600254338452918301919091527f69ca02dd4edd7bf0a4abb9ed3b7af3f14778db5d61921c7dc7cd545266326de291016105e9565b600480546040516370a0823160e01b815233928101929092526000916001600160a01b03909116906370a08231906024016102c4565b6006546040516370a0823160e01b81523360048201526000916001600160a01b0316906370a08231906024016102c4565b604080516001600160a01b038416602482015260448082018490528251808303909101815260649091019091526020810180516001600160e01b031663a9059cbb60e01b17905261091590849061091a565b505050565b600061096f826040518060400160405280602081526020017f5361666545524332303a206c6f772d6c6576656c2063616c6c206661696c6564815250856001600160a01b03166109ec9092919063ffffffff16565b805190915015610915578080602001905181019061098d9190610d97565b6109155760405162461bcd60e51b815260206004820152602a60248201527f5361666545524332303a204552433230206f7065726174696f6e20646964206e6044820152691bdd081cdd58d8d9595960b21b6064820152608401610323565b60606109fb8484600085610a03565b949350505050565b606082471015610a645760405162461bcd60e51b815260206004820152602660248201527f416464726573733a20696e73756666696369656e742062616c616e636520666f6044820152651c8818d85b1b60d21b6064820152608401610323565b600080866001600160a01b03168587604051610a809190610d1d565b60006040518083038185875af1925050503d8060008114610abd576040519150601f19603f3d011682016040523d82523d6000602084013e610ac2565b606091505b5091509150610ad387838387610ade565b979650505050505050565b60608315610b4d578251600003610b46576001600160a01b0385163b610b465760405162461bcd60e51b815260206004820152601d60248201527f416464726573733a2063616c6c20746f206e6f6e2d636f6e74726163740000006044820152606401610323565b50816109fb565b6109fb8383815115610b625781518083602001fd5b8060405162461bcd60e51b81526004016103239190610db9565b80356001600160a01b0381168114610b9357600080fd5b919050565b600060208284031215610baa57600080fd5b610bb382610b7c565b9392505050565b634e487b7160e01b600052604160045260246000fd5b600082601f830112610be157600080fd5b813567ffffffffffffffff80821115610bfc57610bfc610bba565b604051601f8301601f19908116603f01168101908282118183101715610c2457610c24610bba565b81604052838152866020858801011115610c3d57600080fd5b836020870160208301376000602085830101528094505050505092915050565b60008060408385031215610c7057600080fd5b610c7983610b7c565b9150602083013567ffffffffffffffff811115610c9557600080fd5b610ca185828601610bd0565b9150509250929050565b600060208284031215610cbd57600080fd5b813567ffffffffffffffff811115610cd457600080fd5b6109fb84828501610bd0565b600060208284031215610cf257600080fd5b5051919050565b60005b83811015610d14578181015183820152602001610cfc565b50506000910152565b60008251610d2f818460208701610cf9565b9190910192915050565b81810381811115610d5a57634e487b7160e01b600052601160045260246000fd5b92915050565b60208082526017908201527f52657175657374204e6f7420416c6c6f77656420596574000000000000000000604082015260600190565b600060208284031215610da957600080fd5b81518015158114610bb357600080fd5b6020815260008251806020840152610dd8816040850160208701610cf9565b601f01601f1916919091016040019291505056fea26469706673582212200e80c18409a78c0e0168abc34fbd60a792d61c69a543ce4bcfcffad33caee09c64736f6c63430008110033",
  "linkReferences": {},
  "deployedLinkReferences": {}
}